:020000040800F2
:10000000002800206D1500083D1300084313000868
:10001000491300084F1300085513000800000000A2
:100020000000000000000000000000005B1300085A
:100030006713000800000000731300087F13000816
:10004000B5150008B5150008B5150008B515000868
:10005000B5150008B5150008B5150008B515000858
:10006000B5150008B5150008B5150008B515000848
:10007000B5150008B5150008B5150008B515000838
:10008000B5150008B5150008B5150008B515000828
:10009000B5150008B5150008B5150008B515000818
:1000A000B5150008B5150008B5150008B515000808
:1000B0008D130008B515000800000000B5150008F4
:1000C000B51500080000000000000000B51500088C
:1000D00000000000B5150008B5150008000000007C
:1000E000B5150008B5150008B5150008000000009A
:1000F0000000000000000000000000000000000000
:0C01000000000000000000005FF808F1A3
:10010C0010B5054C237833B9044B13B10448AFF345
:10011C0000800123237010BD5C0000200000000053
:10012C00CC2B000808B5034B1BB103490348AFF3B4
:10013C00008008BD0000000060000020CC2B0008EF
:10014C0080B483B000AF7860094A7B6852F82330E2
:10015C00012B06D1064A7B68002142F823100123AB
:10016C0000E0002318460C37BD4680BC704700BF2A
:10017C007800002080B483B000AF7860044A7B68BC
:10018C00012142F8231000BF0C37BD4680BC7047DC
:10019C007800002080B582B000AF00237B6069E05E
:1001AC00384A7B6852F8232037497B6841F8232072
:1001BC00364A7B6852F8232032497B6841F8232069
:1001CC00334A7B6832F813301946324801F0D8FCB8
:1001DC00034619462D4A7B6842F823102B4A7B684C
:1001EC0052F8232027497B6851F823309A423ED19C
:1001FC00244A7B6852F8232023497B6851F823302A
:10020C009A4234D1244A7B6852F823201E497B68D9
:10021C0051F823309A4216D01B4A7B6852F823209F
:10022C001D497B6841F823201B4A7B6852F8233018
:10023C00002B1CD17868FFF79DFF184A7B68C821FA
:10024C0042F8231013E0154A7B6852F823305A1EEB
:10025C0012497B6841F82320104A7B6852F82330FE
:10026C00002B04D10C4A7B68012142F823107B68D7
:10027C0001337B607B68022B92DD00BF00BF083727
:10028C00BD4680BD14000020200000200800002086
:10029C0000000020000C01402C0000203800002041
:1002AC0080B500AF01224FF480510B4801F07FFC68
:1002BC0001224FF40051084801F079FC01224FF45F
:1002CC008041054801F073FC01224FF400410248C3
:1002DC0001F06DFC00BF80BD0008014080B582B00C
:1002EC0000AF78607B68032B26D801A252F823F06C
:1002FC000D0300081B03000829030008370300083E
:10030C0000224FF480510E4801F051FC14E0002201
:10031C004FF400510A4801F04AFC0DE000224FF462
:10032C008041074801F043FC06E000224FF40041F5
:10033C00034801F03CFC00BF00BF0837BD4680BD40
:10034C000008014080B582B000AF78607B68092B53
:10035C0000F2808101A252F823F000BF9103000843
:10036C00D90300082104000869040008B10400083E
:10037C00F90400084105000889050008D1050008AA
:10038C001906000800220121C64801F010FC0022C9
:10039C000221C44801F00BFC00220421C14801F0E9
:1003AC0006FC00220821BF4801F001FC00221021AC
:1003BC00BC4801F0FCFB00222021BA4801F0F7FBFD
:1003CC0001224021B74801F0F2FB67E10122012133
:1003DC00B44801F0ECFB00220221B24801F0E7FB2B
:1003EC0000220421AF4801F0E2FB01220821AD48B4
:1003FC0001F0DDFB01221021AA4801F0D8FB0122FB
:10040C002021A84801F0D3FB01224021A54801F08E
:10041C00CEFB43E100220121A24801F0C8FB0022DF
:10042C000221A04801F0C3FB012204219D4801F0E8
:10043C00BEFB002208219B4801F0B9FB00221021D1
:10044C00984801F0B4FB01222021964801F0AFFB43
:10045C0000224021934801F0AAFB1FE10022012158
:10046C00904801F0A4FB002202218E4801F09FFB72
:10047C00002204218B4801F09AFB002208218948B4
:10048C0001F095FB01221021864801F090FB01221E
:10049C002021844801F08BFB00224021814801F08F
:1004AC0086FBFBE0012201217E4801F080FB00224B
:1004BC0002217C4801F07BFB00220421794801F0E9
:1004CC0076FB01220821774801F071FB01221021F3
:1004DC00744801F06CFB00222021724801F067FB8C
:1004EC00002240216F4801F062FBD7E0002201217D
:1004FC006C4801F05CFB012202216A4801F057FBB9
:10050C0000220421674801F052FB002208216548B3
:10051C0001F04DFB01221021624801F048FB002242
:10052C002021604801F043FB002240215D4801F08E
:10053C003EFBB3E0002201215A4801F038FB0122B6
:10054C000221584801F033FB00220421554801F0E8
:10055C002EFB00220821534801F029FB0022102118
:10056C00504801F024FB002220214E4801F01FFBD3
:10057C00002240214B4801F01AFB8FE000220121A0
:10058C00484801F014FB00220221464801F00FFB01
:10059C0000220421434801F00AFB012208214148B2
:1005AC0001F005FB012210213E4801F000FB012265
:1005BC0020213C4801F0FBFA01224021394801F08E
:1005CC00F6FA6BE000220121364801F0F0FA002225
:1005DC000221344801F0EBFA00220421314801F0E9
:1005EC00E6FA002208212F4801F0E1FA002210213E
:1005FC002C4801F0DCFA002220212A4801F0D7FA1D
:10060C0000224021274801F0D2FA47E000220121C4
:10061C00244801F0CCFA00220221224801F0C7FA4A
:10062C00002204211F4801F0C2FA002208211D48B3
:10063C0001F0BDFA012210211A4801F0B8FA00228B
:10064C002021184801F0B3FA00224021154801F08E
:10065C00AEFA23E000220121124801F0A8FA002290
:10066C000221104801F0A3FA002204210D4801F0E8
:10067C009EFA002208210B4801F099FA0122102160
:10068C00084801F094FA00222021064801F08FFA64
:10069C0000224021034801F08AFA00BF00BF08374E
:1006AC00BD4680BD000C014080B500AF954B1B686A
:1006BC00042B00F2EB8001A252F823F0DD060008B7
:1006CC000F0700086B070008D50700082F08000863
:1006DC008D4B1B688D4A13608D4B1B688D4A1360C4
:1006EC0000F01AFF874B01221A60894B1B686422A9
:1006FC0002FB03F3184600F0E3FC642000F0F4FC6A
:10070C00CDE000F085FE00F0DBFE834B1B68012B77
:10071C0014D1642000F0E8FC7C4B1B68013B7B4A45
:10072C0013607C4B1B68013B7A4A1360794B1B6846
:10073C00002B03DC794B1B68764A1360784B1B68E3
:10074C00012B40F0A580754B1B68642202FB03F360
:10075C00184600F0B5FC6B4B02221A6098E000F0D2
:10076C0057FE00F0C3FE6C4B1B68012B1CD16420A0
:10077C0000F0BAFC654B1B68013B644A1360634B89
:10078C001B68002B03DC624B1B68604A1360614BD7
:10079C001B68013B5F4A13605E4B1B68002B03DC3C
:1007AC00594B1B685B4A13605D4B1B68012B71D165
:1007BC00574B1B68642202FB03F3184600F080FCC5
:1007CC00504B03221A6065E000F038FE00F062FE28
:1007DC00514B1B68012B14D1642000F085FC4B4B52
:1007EC001B68013B494A1360484B1B68002B03DC18
:1007FC004A4B1B68454A1360464B1B68013B454AF4
:10080C001360474B1B68012B46D1444B1B68642279
:10081C0002FB03F3184600F053FC3A4B04221A6017
:10082C003AE000F021FE00F035FE3B4B1B68012B3B
:10083C001CD1642000F058FC344B1B68013B334A3C
:10084C001360324B1B68002B03DC2F4B1B682F4AA9
:10085C001360304B1B68013B2E4A13602D4B1B68F9
:10086C00002B03DC2A4B1B682A4A13602C4B1B6899
:10087C00012B13D1264B1B68642202FB03F3184691
:10088C0000F01EFC1F4B01221A6007E000BF06E0BF
:10089C0000BF04E000BF02E000BF00E000BF00208A
:1008AC00FFF74EFC0346012B2AD1164B1B68012B7C
:1008BC000BD0144B1B68022B07D0124B1B68032B5D
:1008CC0003D0104B1B68042B1AD100F025FE0D4BE6
:1008DC000C221A600C4B1B68124A13600C4B1B68E1
:1008EC00114A13600D4B1B68104A1360012000F075
:1008FC0037FC054B1B68054A1360064B02221A6035
:10090C0000BF80BD8400002044000020A80000200F
:10091C0048000020AC000020C40000204C00002047
:10092C00BC0000209C000020A0000020A40000209F
:10093C0080B500AF904B1B680E2B53D00E2B00F3E1
:10094C000F810C2B03D00D2B00F0988008E18B4B02
:10095C001B68012B10D1192000F002FC884B1B687E
:10096C00002B07D1864B01221A6000F051FD00F0DC
:10097C0091FD01E000F0D0FD0020FFF7E1FB034604
:10098C00012B0CD17C4B0E221A607E4B1B687E4ACD
:10099C0013607E4B03221A60012000F0E1FB012062
:1009AC00FFF7CEFB0346012B10D1794B1B680133AB
:1009BC00774A1360744B1B680133734A1360744B92
:1009CC001B68632B02DD724B02221A600220FFF7B8
:1009DC00B7FB0346022B40F0BE806D4B1B686D4A83
:1009EC001360B8E0654B1B68012B10D1192000F087
:1009FC00B7FB634B1B68002B07D1614B01221A60BC
:100A0C0000F032FD00F072FD01E000F085FD0020E9
:100A1C00FFF796FB0346012B0CD1574B0D221A60A6
:100A2C005D4B1B68584A1360584B04221A60012016
:100A3C0000F096FB0120FFF783FB0346012B12D13C
:100A4C00564B1B680133554A13604F4B1B680133DF
:100A5C004D4A1360514B1A684E4B1B689A4202DB8D
:100A6C004E4B01221A600220FFF76AFB0346022B51
:100A7C0073D14A4B1B68434A13606EE03F4B1B68B3
:100A8C00012B10D10A2000F06BFB3D4B1B68002B97
:100A9C0007D13B4B01221A6000F0D0FC00F010FD96
:100AAC0001E000F039FD0020FFF74AFB0346012B63
:100ABC0026D1314B01221A60364B1A68314B1B6818
:100ACC00D31A354A1360334B1B682F4A1360324BD1
:100ADC001B682E4A136000F067F82F4B1B686422CA
:100AEC0002FB03F3184600F0EBFA642000F0FCFA6A
:100AFC00012000F021FB2A4B00221A60FFF7D0FBEB
:100B0C000120FFF71DFB0346012B12D1254B1B685F
:100B1C000133244A13601C4B1B6801331A4A1360BF
:100B2C001E4B1A681B4B1B689A4202DB1B4B0122A3
:100B3C001A600220FFF704FB0346022B0FD1194B5E
:100B4C001B68154A1360134B1A68134B1B68D31A96
:100B5C000C4A136003E000BF02E000BF00E000BFDE
:100B6C000220FFF7EDFA0346012B03D1094B1B685A
:100B7C00054A136000BF80BD84000020DC0000200B
:100B8C00B00000204C000020A8000020AC00002089
:100B9C009C0000204400002048000020A4000020FD
:100BAC0098000020A000002080B400AF1A4B1B68F6
:100BBC001A4A82FB03129210DB17D31A184A1360DD
:100BCC00154B1968154B83FB01239A10CB17D21ABE
:100BDC0013469B0013445B00CA1A114B5A60114B0D
:100BEC001B680E4A82FB03129210DB17D31A0C4AB5
:100BFC0093600C4B1968094B83FB01239A10CB179C
:100C0C00D21A13469B0013445B00CA1A044BDA60D9
:100C1C0000BFBD4680BC7047A800002067666666B2
:100C2C0088000020AC00002080B500AF00F0BEFCB6
:100C3C0000F03AF800F0C0F800F072F8134801F038
:100C4C00FBFB012000F064FA012000F075FA104B58
:100C5C0000221A60012200210E4800F039F901220D
:100C6C0000210D4800F034F9012200210B4800F05E
:100C7C002FF9012200210A4800F02AF90122002153
:100C8C00084800F025F900F0D9F9FCE70804002029
:100C9C0084000020B50600083D090008AD130008CB
:100CAC0095110008A101000880B590B000AF07F1C4
:100CBC00180328220021184601F07AFF3B1D002260
:100CCC001A605A609A60DA601A610223BB610123D0
:100CDC00BB621023FB6200237B6307F118031846E9
:100CEC0000F07EFF0346002B01D000F0EBF80F2341
:100CFC007B600023BB600023FB6000233B6100236F
:100D0C007B613B1D0021184601F0EAF90346002BDC
:100D1C0001D000F0D7F800BF4037BD4680BD0000C1
:100D2C0080B586B000AF07F1080300221A605A6044
:100D3C009A60DA603B4600221A605A601D4B4FF0F5
:100D4C0080421A601B4B41F63F725A60194B0022CD
:100D5C009A60184B0922DA60164B00221A61154B67
:100D6C0000229A61134801F017FB0346002B01D0B7
:100D7C0000F0A8F84FF48053BB6007F10803194644
:100D8C000C4801F0ADFC0346002B01D000F09AF8A2
:100D9C0000233B6000237B603B461946054801F06D
:100DAC0079FE0346002B01D000F08CF800BF1837F9
:100DBC00BD4680BD0804002080B588B000AF07F1A7
:100DCC00100300221A605A609A60DA60344B9B69F7
:100DDC00334A43F010039361314B9B6903F01003CA
:100DEC00FB60FB682E4B9B692D4A43F00403936117
:100DFC002B4B9B6903F00403BB60BB68284B9B69BE
:100E0C00274A43F008039361254B9B6903F00803C1
:100E1C007B607B6800224FF27E01224800F0C7FE07
:100E2C0000227F21204800F0C2FE4FF400533B61AA
:100E3C0000237B610123BB6107F1100319461B489A
:100E4C0000F024FD4FF27E033B6101237B61002304
:100E5C00BB610223FB6107F110031946114800F036
:100E6C0015FD7F233B6101237B610023BB610223C2
:100E7C00FB6107F1100319460B4800F007FD4FF416
:100E8C0060433B6100237B610123BB6107F11003CD
:100E9C001946054800F0FAFC00BF2037BD4680BD5E
:100EAC000010024000080140000C014000100140FD
:100EBC0080B582B000AF786000F060F800BF0837F2
:100ECC00BD4680BD80B400AF72B600BFFEE7000027
:100EDC0080B485B000AFF860B9607A60254B1B78A0
:100EEC00272B42D8234B1B781946234A0B469B00D1
:100EFC000B449B001344FA681A601E4B1B7819466E
:100F0C001D4A0B469B000B449B0013440433BA68E8
:100F1C001A60184B1B781946174A0B469B000B445A
:100F2C009B00134408337A681A60124B1B781946DD
:100F3C00114A0B469B000B449B0013440C330022BC
:100F4C001A700C4B1A780B4B1B78194610460A4A30
:100F5C000B469B000B449B00134410331860054B4D
:100F6C001B780133DAB2034B1A7000BF1437BD463D
:100F7C0080BC7047B4000020E800002080B483B02F
:100F8C0000AF00237B6048E02A497A6813469B0037
:100F9C0013449B000B4404331B68002B13D02549CE
:100FAC007A6813469B0013449B000B4404331B6864
:100FBC00591E20487A6813469B0013449B00034437
:100FCC000433196026E01B497A6813469B001344CE
:100FDC009B000B440833196816487A6813469B002B
:100FEC0013449B0003440433196012497A68134676
:100FFC009B0013449B000B440C331B780133D8B279
:10100C000C497A6813469B0013449B000B440C3329
:10101C0002461A707B6801337B60074B1B781A46BB
:10102C007B689342B0DB00BF00BF0C37BD4680BC71
:10103C00704700BFE8000020B400002080B582B0EB
:10104C0000AF00237B602BE01B497A6813469B00A2
:10105C0013449B000B440C331B78002B1DD01649FA
:10106C007A6813469B0013449B000B440C331B788B
:10107C00013BD8B210497A6813469B0013449B007D
:10108C000B440C3302461A700B497A6813469B00CA
:10109C0013449B000B441B6898477B6801337B60AF
:1010AC00064B1B781A467B689342CDDB00BF00BF12
:1010BC000837BD4680BD00BFE8000020B40000200A
:1010CC0080B483B000AF7860054A7B681360054B31
:1010DC0000221A6000BF0C37BD4680BC704700BFB1
:1010EC00B8000020BC00002080B483B000AF786052
:1010FC00054A7B681360054B00221A6000BF0C3751
:10110C00BD4680BC704700BFC0000020C40000205A
:10111C0080B483B000AF7860054A7B681360054BE0
:10112C0000221A6000BF0C37BD4680BC704700BF60
:10113C00C8000020CC00002080B483B000AF7860E1
:10114C00054A7B681360054B00221A6000BF0C3700
:10115C00BD4680BC704700BFD0000020D4000020EA
:10116C0080B483B000AF7860054A7B681360054B90
:10117C0000221A6000BF0C37BD4680BC704700BF10
:10118C00D8000020DC00002080B400AF314B1B687D
:10119C00002B0BDD2F4B1B68013B2E4A13602D4B94
:1011AC001B68002B02DC2C4B01221A602B4B1B689A
:1011BC00002B0BDD294B1B68013B284A1360274B86
:1011CC001B68002B02DC264B01221A60254B1B6886
:1011DC00002B0BDD234B1B68013B224A1360214B78
:1011EC001B68002B02DC204B01221A601F4B1B6872
:1011FC00002B0BDD1D4B1B68013B1C4A13601B4B6A
:10120C001B68002B02DC1A4B01221A60194B1B685D
:10121C00002B0BDD174B1B68013B164A1360154B5B
:10122C001B68002B02DC144B01221A60134B1B6849
:10123C00002B0BDD114B1B68013B104A13600F4B4D
:10124C001B68002B02DC0E4B01221A6000BFBD464E
:10125C0080BC7047B8000020BC000020C0000020FB
:10126C00C4000020C8000020CC000020D0000020CA
:10127C00D4000020D8000020DC000020E00000207A
:10128C00E400002080B485B000AF154B9B69144A74
:10129C0043F001039361124B9B6903F00103BB60A4
:1012AC00BB680F4BDB690E4A43F08053D3610C4B88
:1012BC00DB6903F080537B607B680A4B5B68FB60E7
:1012CC00FB6823F0E063FB60FB6843F08063FB602A
:1012DC00044AFB68536000BF1437BD4680BC70479E
:1012EC00001002400000014080B584B000AF78606F
:1012FC007B681B68B3F1804F13D10C4BDB690B4A35
:10130C0043F00103D361094BDB6903F00103FB607C
:10131C00FB68002200211C2000F081FA1C2000F048
:10132C009AFA00BF1037BD4680BD00BF00100240C6
:10133C0080B400AFFEE780B400AFFEE780B400AF2E
:10134C00FEE780B400AFFEE780B400AFFEE780B4E8
:10135C0000AF00BFBD4680BC704780B400AF00BF7B
:10136C00BD4680BC704780B400AF00BFBD4680BC9A
:10137C00704780B500AF00F05FF900BF80BD000082
:10138C0080B500AF024801F0A3F800BF80BD00BFDC
:10139C000804002080B400AF00BFBD4680BC70477D
:1013AC0080B500AF164B1B68012B04D10A20FFF748
:1013BC00AFFEFFF7F9FB134B1B68012B1DD1192056
:1013CC00FFF7BAFEFEF76CFF0F4B1B680F4A52F883
:1013DC0023301846FEF7B6FF0B4B1B681846FEF77A
:1013EC007DFF094B1B680133074A1360064B1B68D2
:1013FC00032B02DD044B00221A6000BF80BD00BF2E
:10140C00CC000020D4000020980000208800002090
:10141C0080B500AF01220221074800F0C8FB002272
:10142C000421054800F0C3FB00220821024800F00B
:10143C00BEFB00BF80BD00BF0008014080B500AFFF
:10144C0000220221074800F0B2FB012204210548CA
:10145C0000F0ADFB00220821024800F0A8FB00BF01
:10146C0080BD00BF0008014080B500AF0022022102
:10147C00074800F09CFB00220421054800F097FB74
:10148C0001220821024800F092FB00BF80BD00BF82
:10149C000008014080B500AF01221021074800F080
:1014AC0086FB00222021054800F081FB0022402110
:1014BC00024800F07CFB00BF80BD00BF000801406B
:1014CC0080B500AF00221021074800F070FB01220C
:1014DC002021054800F06BFB00224021024800F05F
:1014EC0066FB00BF80BD00BF0008014080B500AFA7
:1014FC0000221021074800F05AFB00222021054849
:10150C0000F055FB01224021024800F050FB00BFC7
:10151C0080BD00BF0008014080B500AF0022022151
:10152C000E4800F044FB002204210C4800F03FFB65
:10153C0000220821094800F03AFB0022102107483C
:10154C0000F035FB00222021044800F030FB002283
:10155C004021024800F02BFB00BF80BD0008014079
:10156C00FFF718FF0B480C490C4A002302E0D45833
:10157C00C4500433C4188C42F9D3094A094C0023D3
:10158C0001E013600432A242FBD301F0EDFAFFF745
:10159C004BFB7047000000205C000020102C000862
:1015AC005C00002054040020FEE7000080B500AF72
:1015BC00084B1B68074A43F010031360032000F02C
:1015CC0023F90F2000F008F8FFF75CFE0023184603
:1015DC0080BD00BF0020024080B582B000AF7860B3
:1015EC00124B1A68124B1B7819464FF47A73B3FBE3
:1015FC00F1F3B2FBF3F3184600F03BF90346002B72
:10160C0001D001230EE07B680F2B0AD800227968E9
:10161C004FF0FF3000F003F9064A7B68136000239B
:10162C0000E0012318460837BD4680BD500000205D
:10163C00580000205400002080B400AF054B1B78EC
:10164C001A46054B1B681344034A136000BFBD4682
:10165C0080BC7047580000205004002080B400AFBC
:10166C00024B1B681846BD4680BC704750040020D6
:10167C0080B485B000AF78607B6803F00703FB6033
:10168C000C4BDB68BB60BA684FF6FF031340BB60C2
:10169C00FB681A02BB68134343F0BF6343F4003387
:1016AC00BB60044ABB68D36000BF1437BD4680BC26
:1016BC00704700BF00ED00E080B400AF044BDB6866
:1016CC001B0A03F007031846BD4680BC704700BFD9
:1016DC0000ED00E080B483B000AF0346FB7197F9D6
:1016EC000730002B0BDBFB7903F01F02064997F93F
:1016FC0007305B09012000FA02F241F8232000BFF9
:10170C000C37BD4680BC704700E100E080B483B06C
:10171C0000AF03463960FB7197F90730002B0ADBE9
:10172C003B68DAB20C4997F907301201D2B20B447C
:10173C0083F800230AE03B68DAB20849FB7903F02E
:10174C000F03043B1201D2B20B441A7600BF0C37C4
:10175C00BD4680BC704700BF00E100E000ED00E03A
:10176C0080B489B000AFF860B9607A60FB6803F0B0
:10177C000703FB61FB69C3F10703042B28BF042398
:10178C00BB61FB690433062B02D9FB69033B00E008
:10179C0000237B614FF0FF32BB6902FA03F3DA439B
:1017AC00BB681A407B699A404FF0FF317B6901FAA4
:1017BC0003F3D9437B680B40134318462437BD46CB
:1017CC0080BC704780B582B000AF78607B68013B0D
:1017DC00B3F1807F01D301230FE00A4A7B68013B00
:1017EC0053600F214FF0FF30FFF790FF054B0022A5
:1017FC009A60044B07221A60002318460837BD462E
:10180C0080BD00BF10E000E080B582B000AF786012
:10181C007868FFF72DFF00BF0837BD4680BD80B547
:10182C0086B000AF0346B9607A60FB7300237B611E
:10183C00FFF742FF78617A68B9687869FFF790FF23
:10184C00024697F90F3011461846FFF75FFF00BFAD
:10185C001837BD4680BD80B582B000AF0346FB7122
:10186C0097F907301846FFF735FF00BF0837BD461C
:10187C0080BD80B582B000AF78607868FFF7A2FFBA
:10188C00034618460837BD4680BD000080B48BB0B7
:10189C0000AF7860396000237B6200233B6248E133
:1018AC0001227B6A02FA03F3FB613B681B68FA694D
:1018BC001340BB61BA69FB699A4240F037813B68BF
:1018CC005B68A34A93425ED0A14A934275D8A14A61
:1018DC00934258D09F4A93426FD89F4A934252D01A
:1018EC009D4A934269D89D4A93424CD09B4A93425D
:1018FC0063D89B4A934246D0994A93425DD8122BA7
:10190C002AD8122B59D801A252F823F093190008A7
:10191C006D1900087F190008C1190008C7190008C3
:10192C00C7190008C7190008C7190008C71900080B
:10193C00C7190008C7190008C7190008C7190008FB
:10194C00C7190008C7190008C7190008C7190008EB
:10195C007519000889190008824A934213D02CE0AB
:10196C003B68DB683B6229E03B68DB6804333B6225
:10197C0024E03B68DB6808333B621FE03B68DB68B4
:10198C000C333B621AE03B689B68002B02D10423AA
:10199C003B6213E03B689B68012B05D108233B623B
:1019AC007B68FA691A6109E008233B627B68FA6973
:1019BC005A6103E000233B6200E000BFBB69FF2BD0
:1019CC0001D87B6801E07B6804337B61BB69FF2B2A
:1019DC0002D87B6A9B0002E07B6A083B9B003B6160
:1019EC007B691A680F213B6901FA03F3DB431A4048
:1019FC00396A3B6901FA03F31A437B691A603B6845
:101A0C005B6803F08053002B00F09080564B9B6971
:101A1C00554A43F001039361534B9B6903F0010357
:101A2C00BB60BB68514A7B6A9B08023352F8233077
:101A3C00FB607B6A03F003039B000F2202FA03F3A3
:101A4C00DB43FA681340FB607B68494A93420DD034
:101A5C007B68484A934207D07B68474A934201D13E
:101A6C00022304E0032302E0012300E000237A6A4E
:101A7C0002F0030292009340FA681343FB603B4967
:101A8C007B6A9B080233FA6841F823203B685B6849
:101A9C0003F48013002B06D0384B9A683749BB6986
:101AAC0013438B6006E0354B9A68BB69DB433349C3
:101ABC0013408B603B685B6803F40013002B06D06B
:101ACC002E4BDA682D49BB691343CB6006E02B4BD8
:101ADC00DA68BB69DB4329491340CB603B685B6820
:101AEC0003F40033002B06D0244B5A682349BB69FE
:101AFC0013434B6006E0214B5A68BB69DB431F491B
:101B0C0013404B603B685B6803F48033002B06D0BA
:101B1C001A4B1A681949BB6913430B6006E0174B43
:101B2C001A68BB69DB43154913400B607B6A0133B0
:101B3C007B623B681A687B6A22FA03F3002B7FF402
:101B4C00AFAE00BF00BF2C37BD4680BC704700BF96
:101B5C000000321000003110000022100000211093
:101B6C000000121000001110001002400000014093
:101B7C0000080140000C014000100140000401402D
:101B8C0080B485B000AF78600B467B807B689A6828
:101B9C007B881340002B02D00123FB7301E0002350
:101BAC00FB73FB7B18461437BD4680BC704780B472
:101BBC0083B000AF78600B467B8013467B707B78DC
:101BCC00002B03D07A887B681A6103E07B881A04A7
:101BDC007B681A6100BF0C37BD4680BC70470000A3
:101BEC0080B586B000AF78607B68002B01D10123F3
:101BFC006CE27B681B6803F00103002B00F087800C
:101C0C00924B5B6803F00C03042B0CD08F4B5B687E
:101C1C0003F00C03082B12D18C4B5B6803F480335C
:101C2C00B3F5803F0BD1894B1B6803F40033002BB9
:101C3C006CD07B685B68002B68D1012346E27B6823
:101C4C005B68B3F5803F06D1804B1B687F4A43F439
:101C5C00803313602EE07B685B68002B0CD17B4BD0
:101C6C001B687A4A23F480331360784B1B68774ADD
:101C7C0023F4802313601DE07B685B68B3F5A02F11
:101C8C000CD1724B1B68714A43F4802313606F4B69
:101C9C001B686E4A43F4803313600BE06B4B1B687C
:101CAC006A4A23F480331360684B1B68674A23F439
:101CBC00802313607B685B68002B13D0FFF7CEFC8E
:101CCC00386108E0FFF7CAFC02463B69D31A642B63
:101CDC0001D90323FAE15D4B1B6803F40033002B9D
:101CEC00F0D014E0FFF7BAFC386108E0FFF7B6FC5F
:101CFC0002463B69D31A642B01D90323E6E1534B0B
:101D0C001B6803F40033002BF0D100E000BF7B68AC
:101D1C001B6803F00203002B63D04C4B5B6803F091
:101D2C000C03002B0BD0494B5B6803F00C03082B06
:101D3C001CD1464B5B6803F48033002B16D1434B0C
:101D4C001B6803F00203002B05D07B681B69012B79
:101D5C0001D00123BAE13D4B1B6823F0F8027B68EC
:101D6C005B69DB00394913430B603AE07B681B6904
:101D7C00002B20D0364B01221A60FFF76FFC386124
:101D8C0008E0FFF76BFC02463B69D31A022B01D922
:101D9C0003239BE12D4B1B6803F00203002BF0D0B7
:101DAC002A4B1B6823F0F8027B685B69DB00274930
:101DBC0013430B6015E0264B00221A60FFF74EFC14
:101DCC00386108E0FFF74AFC02463B69D31A022B44
:101DDC0001D903237AE11D4B1B6803F00203002B8E
:101DEC00F0D17B681B6803F00803002B3AD07B68AA
:101DFC009B69002B19D0174B01221A60FFF72EFCA0
:101E0C00386108E0FFF72AFC02463B69D31A022B23
:101E1C0001D903235AE10D4B5B6A03F00203002B3B
:101E2C00F0D0012000F09AFA1CE00A4B00221A6054
:101E3C00FFF714FC38610FE0FFF710FC02463B691A
:101E4C00D31A022B08D9032340E100BF0010024033
:101E5C0000004242800442429E4B5B6A03F0020344
:101E6C00002BE9D17B681B6803F00403002B00F006
:101E7C00A6800023FB75974BDB6903F08053002B86
:101E8C000DD1944BDB69934A43F08053D361914B52
:101E9C00DB6903F08053BB60BB680123FB758E4B81
:101EAC001B6803F48073002B18D18B4B1B688A4A78
:101EBC0043F480731360FFF7D1FB386108E0FFF740
:101ECC00CDFB02463B69D31A642B01D90323FDE0F9
:101EDC00814B1B6803F48073002BF0D07B68DB68AC
:101EEC00012B06D17B4B1B6A7A4A43F00103136228
:101EFC002DE07B68DB68002B0CD1764B1B6A754A96
:101F0C0023F001031362734B1B6A724A23F0040320
:101F1C0013621CE07B68DB68052B0CD16D4B1B6AD4
:101F2C006C4A43F0040313626A4B1B6A694A43F020
:101F3C00010313620BE0674B1B6A664A23F0010333
:101F4C001362644B1B6A634A23F0040313627B68BD
:101F5C00DB68002B15D0FFF781FB38610AE0FFF737
:101F6C007DFB02463B69D31A41F28832934201D978
:101F7C000323ABE0574B1B6A03F00203002BEED09C
:101F8C0014E0FFF76BFB38610AE0FFF767FB0246D2
:101F9C003B69D31A41F28832934201D9032395E06D
:101FAC004C4B1B6A03F00203002BEED1FB7D012B83
:101FBC0005D1484BDB69474A23F08053D3617B68DA
:101FCC00DB69002B00F08180424B5B6803F00C0353
:101FDC00082B61D07B68DB69022B46D13F4B00227A
:101FEC001A60FFF73BFB386108E0FFF737FB02464E
:101FFC003B69D31A022B01D9032367E0354B1B68CD
:10200C0003F00073002BF0D17B681B6AB3F5803FA3
:10201C0008D1304B5B6823F400327B689B682D49F8
:10202C0013434B602B4B5B6823F474127B68196A67
:10203C007B685B6A0B43274913434B60274B012298
:10204C001A60FFF70BFB386108E0FFF707FB02464D
:10205C003B69D31A022B01D9032337E01D4B1B68B4
:10206C0003F00073002BF0D02FE01C4B00221A6001
:10207C00FFF7F4FA386108E0FFF7F0FA02463B6923
:10208C00D31A022B01D9032320E0124B1B6803F057
:10209C000073002BF0D118E07B68DB69012B01D1B8
:1020AC00012313E00B4B5B68FB60FB6803F480328D
:1020BC007B681B6A9A4206D1FB6803F470127B683A
:1020CC005B6A9A4201D0012300E0002318461837BE
:1020DC00BD4680BD001002400070004060004242CE
:1020EC0080B584B000AF786039607B68002B01D17B
:1020FC000123D0E06A4B1B6803F007033A689A424D
:10210C0010D9674B1B6823F0070265493B681343E2
:10211C000B60634B1B6803F007033A689A4201D0CB
:10212C000123B8E07B681B6803F00203002B20D06E
:10213C007B681B6803F00403002B05D0594B5B68CC
:10214C00584A43F4E06353607B681B6803F0080350
:10215C00002B05D0534B5B68524A43F460535360D9
:10216C00504B5B6823F0F0027B689B684D4913432E
:10217C004B607B681B6803F00103002B40D07B682D
:10218C005B68012B07D1474B1B6803F40033002B12
:10219C0015D101237FE07B685B68022B07D1414B93
:1021AC001B6803F00073002B09D1012373E03D4B36
:1021BC001B6803F00203002B01D101236BE0394BA8
:1021CC005B6823F003027B685B68364913434B6002
:1021DC00FFF744FAF8600AE0FFF740FA0246FB68A2
:1021EC00D31A41F28832934201D9032353E02D4B89
:1021FC005B6803F00C027B685B689B009A42EBD136
:10220C00274B1B6803F007033A689A4210D2244B01
:10221C001B6823F0070222493B6813430B60204BD9
:10222C001B6803F007033A689A4201D0012332E09D
:10223C007B681B6803F00403002B08D0194B5B6808
:10224C0023F4E0627B68DB68164913434B607B68C0
:10225C001B6803F00803002B09D0124B5B6823F4B6
:10226C0060527B681B69DB000E4913434B6000F026
:10227C0021F802460B4B5B681B0903F00F030A495C
:10228C00CB5C22FA03F3094A1360094B1B6818460E
:10229C00FFF7A2F9002318461037BD4680BD00BFDA
:1022AC000020024000100240E42B000850000020E7
:1022BC005400002080B487B000AF0023FB600023E3
:1022CC00BB6000237B6100237B6000233B611E4BC2
:1022DC005B68FB60FB6803F00C03042B02D0082B3B
:1022EC0003D027E0194B3B6127E0FB689B0C03F004
:1022FC000F03174AD35C7B60FB6803F48033002B1D
:10230C0010D0114B5B685B0C03F00103114AD35CDA
:10231C00BB607B680D4A02FB03F2BB68B2FBF3F3B4
:10232C007B6104E07B680C4A02FB03F37B617B69F5
:10233C003B6102E0054B3B6100BF3B6918461C3713
:10234C00BD4680BC704700BF0010024000127A00EE
:10235C00F42B0008042C000800093D0080B485B063
:10236C0000AF78600A4B1B680A4AA2FB03235B0A86
:10237C007A6802FB03F3FB6000BFFB685A1EFA602D
:10238C00002BF9D100BF00BF1437BD4680BC70478D
:10239C0050000020D34D621080B582B000AF786041
:1023AC007B68002B01D1012341E07B6893F83D3021
:1023BC00DBB2002B06D17B68002283F83C207868C6
:1023CC00FEF792FF7B68022283F83D207B681A6837
:1023DC007B6804331946104600F06EFA7B680122C4
:1023EC0083F846207B68012283F83E207B6801221B
:1023FC0083F83F207B68012283F840207B68012210
:10240C0083F841207B68012283F842207B680122FB
:10241C0083F843207B68012283F844207B680122E7
:10242C0083F845207B68012283F83D200023184661
:10243C000837BD4680BD000080B485B000AF786021
:10244C007B6893F83D30DBB2012B01D0012335E0E2
:10245C007B68022283F83D207B681B68DA687B6806
:10246C001B6842F00102DA607B681B68164A9342D3
:10247C0009D07B681B68B3F1804F04D07B681B6864
:10248C00124A934211D17B681B689B6803F00703C7
:10249C00FB60FB68062B10D07B681B681A687B6896
:1024AC001B6842F001021A6007E07B681B681A681F
:1024BC007B681B6842F001021A600023184614372F
:1024CC00BD4680BC704700BF002C0140000400409A
:1024DC0080B582B000AF78607B681B681B6903F025
:1024EC000203022B22D17B681B68DB6803F002031A
:1024FC00022B1BD17B681B686FF002021A617B6890
:10250C0001221A777B681B689B6903F00303002B7D
:10251C0003D0786800F0B4F905E0786800F0A7F90A
:10252C00786800F0B6F97B6800221A777B681B6824
:10253C001B6903F00403042B22D17B681B68DB6846
:10254C0003F00403042B1BD17B681B686FF004029F
:10255C001A617B6802221A777B681B689B6903F4FB
:10256C004073002B03D0786800F08AF905E0786896
:10257C0000F07DF9786800F08CF97B6800221A77FE
:10258C007B681B681B6903F00803082B22D17B684E
:10259C001B68DB6803F00803082B1BD17B681B68E6
:1025AC006FF008021A617B6804221A777B681B683B
:1025BC00DB6903F00303002B03D0786800F060F9AB
:1025CC0005E0786800F053F9786800F062F97B68F0
:1025DC0000221A777B681B681B6903F01003102B11
:1025EC0022D17B681B68DB6803F01003102B1BD116
:1025FC007B681B686FF010021A617B6808221A77DF
:10260C007B681B68DB6903F44073002B03D078688C
:10261C0000F036F905E0786800F029F9786800F0E8
:10262C0038F97B6800221A777B681B681B6903F0FA
:10263C000103012B0ED17B681B68DB6803F00103DF
:10264C00012B07D17B681B686FF001021A61786857
:10265C00FEF72EFC7B681B681B6903F08003802B44
:10266C000ED17B681B68DB6803F08003802B07D1DD
:10267C007B681B686FF080021A61786800F06BFA57
:10268C007B681B681B6903F04003402B0ED17B68F1
:10269C001B68DB6803F04003402B07D17B681B6889
:1026AC006FF040021A61786800F0FCF87B681B68D8
:1026BC001B6903F02003202B0ED17B681B68DB68A1
:1026CC0003F02003202B07D17B681B686FF02002DE
:1026DC001A61786800F036FA00BF0837BD4680BD35
:1026EC0080B584B000AF786039600023FB737B68E1
:1026FC0093F83C30012B01D10223B4E07B6801221A
:10270C0083F83C207B68022283F83D207B681B68A1
:10271C009B68BB60BB6823F07703BB60BB6823F48A
:10272C007F43BB607B681B68BA689A603B681B6818
:10273C00B3F5005F3ED0B3F5005F00F28780B3F5D0
:10274C00805F00F08680B3F5805F7FD8702B1AD045
:10275C00702B7BD8602B50D0602B77D8502B3CD073
:10276C00502B73D8402B58D0402B6FD8302B64D0C3
:10277C00302B6BD8202B60D0202B67D8002B5CD053
:10278C00102B5AD062E07B6818683B6899683B68EC
:10279C005A683B68DB6800F05EF97B681B689B68D5
:1027AC00BB60BB6843F07703BB607B681B68BA688F
:1027BC009A604FE07B6818683B6899683B685A6878
:1027CC003B68DB6800F047F97B681B689A687B689C
:1027DC001B6842F480429A603CE07B6818683B6856
:1027EC0059683B68DB681A4600F0BEF87B681B68CA
:1027FC005021184600F015F92CE07B6818683B68EE
:10280C0059683B68DB681A4600F0DCF87B681B688B
:10281C006021184600F005F91CE07B6818683B68DD
:10282C0059683B68DB681A4600F09EF87B681B68A9
:10283C004021184600F0F5F80CE07B681A683B68FC
:10284C001B681946104600F0ECF803E00123FB73FB
:10285C0000E000BF7B68012283F83D207B680022EA
:10286C0083F83C20FB7B18461037BD4680BD80B4F6
:10287C0083B000AF786000BF0C37BD4680BC70479A
:10288C0080B483B000AF786000BF0C37BD4680BC0D
:10289C00704780B483B000AF786000BF0C37BD4682
:1028AC0080BC704780B483B000AF786000BF0C3739
:1028BC00BD4680BC7047000080B485B000AF786026
:1028CC0039607B681B68FB607B68254A934207D0A4
:1028DC007B68B3F1804F03D07B68224A934208D1C6
:1028EC00FB6823F07003FB603B685B68FA6813437A
:1028FC00FB607B681A4A934207D07B68B3F1804F28
:10290C0003D07B68174A934208D1FB6823F44073C9
:10291C00FB603B68DB68FA681343FB60FB6823F0E1
:10292C0080023B685B691343FB607B68FA681A6042
:10293C003B689A687B68DA623B681A687B689A62C3
:10294C007B68074A934203D13B681A697B681A6318
:10295C007B6801225A6100BF1437BD4680BC7047AA
:10296C00002C01400004004080B487B000AFF86038
:10297C00B9607A60FB681B6A7B61FB681B6A23F099
:10298C000102FB681A62FB689B693B613B6923F09F
:10299C00F0033B617B681B013A6913433B617B6924
:1029AC0023F00A037B617A69BB6813437B61FB6884
:1029BC003A699A61FB687A691A6200BF1C37BD4696
:1029CC0080BC704780B487B000AFF860B9607A60A3
:1029DC00FB681B6A7B61FB681B6A23F01002FB68B7
:1029EC001A62FB689B693B613B6923F470433B6152
:1029FC007B681B033A6913433B617B6923F0A0039B
:102A0C007B61BB681B017A6913437B61FB683A6984
:102A1C009A61FB687A691A6200BF1C37BD4680BC9C
:102A2C00704780B485B000AF786039607B689B6874
:102A3C00FB60FB6823F07003FB603A68FB68134390
:102A4C0043F00703FB607B68FA689A6000BF143799
:102A5C00BD4680BC704780B487B000AFF860B960E9
:102A6C007A603B60FB689B687B617B6923F47F43E6
:102A7C007B613B681A027B681A43BB6813437A6913
:102A8C0013437B61FB687A699A6000BF1C37BD46B3
:102A9C0080BC704780B485B000AF786039607B68CB
:102AAC0093F83C30012B01D1022341E07B680122D9
:102ABC0083F83C207B68022283F83D207B681B68EE
:102ACC005B68FB607B681B689B68BB60FB6823F0E2
:102ADC007003FB603B681B68FA681343FB607B6800
:102AEC001B68FA685A607B681B68144A934209D0C9
:102AFC007B681B68B3F1804F04D07B681B68104A5D
:102B0C0093420CD1BB6823F08003BB603B685B68CD
:102B1C00BA681343BB607B681B68BA689A607B68B1
:102B2C00012283F83D207B68002283F83C2000239F
:102B3C0018461437BD4680BC704700BF002C0140BE
:102B4C000004004080B483B000AF786000BF0C3745
:102B5C00BD4680BC704780B483B000AF786000BFC6
:102B6C000C37BD4680BC704770B500260C4D0D4C23
:102B7C00641BA410A64209D100F022F800260A4DCD
:102B8C000A4C641BA410A64205D170BD55F8043B39
:102B9C0098470136EEE755F8043B98470136F2E7C3
:102BAC00082C0008082C0008082C00080C2C000825
:102BBC0003460244934200D1704703F8011BF9E726
:102BCC00F8B500BFF8BC08BC9E467047F8B500BF0E
:082BDC00F8BC08BC9E467047DE
:102BE40000000000000000000102030406070809B9
:102BF40002030405060708090A0B0C0D0E0F10103A
:042C040001020000C9
:042C0800310100088E
:042C0C000D010008AE
:102C100000800040002000000100000001000000D2
:102C200001000000010000000100000001000000A0
:102C30000100000001000000010000000100000090
:102C40000100000001000000C8000000C8000000F2
:102C5000C8000000050000000300000002000000A2
:0C2C60000024F40010000000010000003F
:040000050800156D6D
:00000001FF
